{
  "contractName": "Identity",
  "abi": [
    {
      "constant": true,
      "inputs": [],
      "name": "name",
      "outputs": [
        {
          "name": "",
          "type": "string"
        }
      ],
      "payable": false,
      "stateMutability": "view",
      "type": "function"
    },
    {
      "constant": true,
      "inputs": [],
      "name": "modulesRegisteredSize",
      "outputs": [
        {
          "name": "",
          "type": "uint256"
        }
      ],
      "payable": false,
      "stateMutability": "view",
      "type": "function"
    },
    {
      "constant": true,
      "inputs": [],
      "name": "nationality",
      "outputs": [
        {
          "name": "",
          "type": "string"
        }
      ],
      "payable": false,
      "stateMutability": "view",
      "type": "function"
    },
    {
      "constant": true,
      "inputs": [],
      "name": "isRevoked",
      "outputs": [
        {
          "name": "",
          "type": "bool"
        }
      ],
      "payable": false,
      "stateMutability": "view",
      "type": "function"
    },
    {
      "constant": true,
      "inputs": [],
      "name": "legacyId",
      "outputs": [
        {
          "name": "",
          "type": "string"
        }
      ],
      "payable": false,
      "stateMutability": "view",
      "type": "function"
    },
    {
      "constant": true,
      "inputs": [],
      "name": "dateOfBirth",
      "outputs": [
        {
          "name": "",
          "type": "uint256"
        }
      ],
      "payable": false,
      "stateMutability": "view",
      "type": "function"
    },
    {
      "constant": true,
      "inputs": [],
      "name": "gender",
      "outputs": [
        {
          "name": "",
          "type": "uint8"
        }
      ],
      "payable": false,
      "stateMutability": "view",
      "type": "function"
    },
    {
      "constant": true,
      "inputs": [],
      "name": "locality",
      "outputs": [
        {
          "name": "",
          "type": "string"
        }
      ],
      "payable": false,
      "stateMutability": "view",
      "type": "function"
    },
    {
      "constant": true,
      "inputs": [],
      "name": "issuingAuthority",
      "outputs": [
        {
          "name": "",
          "type": "address"
        }
      ],
      "payable": false,
      "stateMutability": "view",
      "type": "function"
    },
    {
      "constant": true,
      "inputs": [],
      "name": "owner",
      "outputs": [
        {
          "name": "",
          "type": "address"
        }
      ],
      "payable": false,
      "stateMutability": "view",
      "type": "function"
    },
    {
      "constant": true,
      "inputs": [],
      "name": "surname",
      "outputs": [
        {
          "name": "",
          "type": "string"
        }
      ],
      "payable": false,
      "stateMutability": "view",
      "type": "function"
    },
    {
      "inputs": [
        {
          "name": "_owner",
          "type": "address"
        },
        {
          "name": "_issuingAuthority",
          "type": "address"
        },
        {
          "name": "_legacyId",
          "type": "string"
        },
        {
          "name": "_name",
          "type": "string"
        },
        {
          "name": "_surname",
          "type": "string"
        },
        {
          "name": "_locality",
          "type": "string"
        },
        {
          "name": "_nationality",
          "type": "string"
        },
        {
          "name": "_dateOfBirth",
          "type": "uint256"
        },
        {
          "name": "_gender",
          "type": "uint8"
        }
      ],
      "payable": false,
      "stateMutability": "nonpayable",
      "type": "constructor"
    },
    {
      "constant": false,
      "inputs": [
        {
          "name": "factoryAddress",
          "type": "address"
        },
        {
          "name": "module",
          "type": "address"
        }
      ],
      "name": "registerModule",
      "outputs": [
        {
          "name": "",
          "type": "bool"
        }
      ],
      "payable": false,
      "stateMutability": "nonpayable",
      "type": "function"
    },
    {
      "constant": false,
      "inputs": [
        {
          "name": "factoryAddress",
          "type": "address"
        }
      ],
      "name": "deregisterModule",
      "outputs": [
        {
          "name": "",
          "type": "bool"
        }
      ],
      "payable": false,
      "stateMutability": "nonpayable",
      "type": "function"
    },
    {
      "constant": true,
      "inputs": [
        {
          "name": "factoryAddress",
          "type": "address"
        }
      ],
      "name": "lookupModule",
      "outputs": [
        {
          "name": "",
          "type": "address"
        }
      ],
      "payable": false,
      "stateMutability": "view",
      "type": "function"
    },
    {
      "constant": true,
      "inputs": [],
      "name": "getDetails",
      "outputs": [
        {
          "name": "",
          "type": "address"
        },
        {
          "name": "",
          "type": "address"
        },
        {
          "name": "",
          "type": "string"
        },
        {
          "name": "",
          "type": "string"
        },
        {
          "name": "",
          "type": "string"
        },
        {
          "name": "",
          "type": "string"
        },
        {
          "name": "",
          "type": "string"
        },
        {
          "name": "",
          "type": "uint8"
        },
        {
          "name": "",
          "type": "uint256"
        },
        {
          "name": "",
          "type": "bool"
        }
      ],
      "payable": false,
      "stateMutability": "view",
      "type": "function"
    },
    {
      "constant": false,
      "inputs": [],
      "name": "generateRevocationCertificate",
      "outputs": [
        {
          "name": "",
          "type": "bytes32"
        }
      ],
      "payable": false,
      "stateMutability": "nonpayable",
      "type": "function"
    },
    {
      "constant": false,
      "inputs": [
        {
          "name": "cert",
          "type": "bytes32"
        }
      ],
      "name": "revoke",
      "outputs": [],
      "payable": false,
      "stateMutability": "nonpayable",
      "type": "function"
    }
  ],
  "bytecode": "0x60606040526000600860016101000a81548160ff0219169083151502179055506000600b5534156200003057600080fd5b604051620019cc380380620019cc83398101604052808051906020019091908051906020019091908051820191906020018051820191906020018051820191906020018051820191906020018051820191906020018051906020019091908051906020019091905050886000806101000a81548173ffffffffffffffffffffffffffffffffffffffff021916908373ffffffffffffffffffffffffffffffffffffffff16021790555087600160006101000a81548173ffffffffffffffffffffffffffffffffffffffff021916908373ffffffffffffffffffffffffffffffffffffffff160217905550866002908051906020019062000132929190620001d1565b5085600390805190602001906200014b929190620001d1565b50846004908051906020019062000164929190620001d1565b5083600590805190602001906200017d929190620001d1565b50826006908051906020019062000196929190620001d1565b508160078190555080600860006101000a81548160ff02191690836002811115620001bd57fe5b021790555050505050505050505062000280565b828054600181600116156101000203166002900490600052602060002090601f016020900481019282601f106200021457805160ff191683800117855562000245565b8280016001018555821562000245579182015b828111156200024457825182559160200191906001019062000227565b5b50905062000254919062000258565b5090565b6200027d91905b80821115620002795760008160009055506001016200025f565b5090565b90565b61173c80620002906000396000f3006060604052600436106100f1576000357c0100000000000000000000000000000000000000000000000000000000900463ffffffff16806306fdde03146100f65780631a5510a41461018457806320d48037146101ad5780632bc9ed021461023b578063372903aa146102685780634c7ea13614610299578063615dac4e1461032757806378b1fa741461035057806379caad86146103a15780637f9f7f3d146103d857806387342252146104665780638a53ea77146104bb5780638da5cb5b1461052b578063b38fee9214610580578063b75c7dc61461060e578063c7a6afc714610635578063fbbf93a0146106ae575b600080fd5b341561010157600080fd5b610109610979565b6040518080602001828103825283818151815260200191508051906020019080838360005b8381101561014957808201518184015260208101905061012e565b50505050905090810190601f1680156101765780820380516001836020036101000a031916815260200191505b509250505060405180910390f35b341561018f57600080fd5b610197610a17565b6040518082815260200191505060405180910390f35b34156101b857600080fd5b6101c0610a1d565b6040518080602001828103825283818151815260200191508051906020019080838360005b838110156102005780820151818401526020810190506101e5565b50505050905090810190601f16801561022d5780820380516001836020036101000a031916815260200191505b509250505060405180910390f35b341561024657600080fd5b61024e610abb565b604051808215151515815260200191505060405180910390f35b341561027357600080fd5b61027b610ace565b60405180826000191660001916815260200191505060405180910390f35b34156102a457600080fd5b6102ac610c24565b6040518080602001828103825283818151815260200191508051906020019080838360005b838110156102ec5780820151818401526020810190506102d1565b50505050905090810190601f1680156103195780820380516001836020036101000a031916815260200191505b509250505060405180910390f35b341561033257600080fd5b61033a610cc2565b6040518082815260200191505060405180910390f35b341561035b57600080fd5b610387600480803573ffffffffffffffffffffffffffffffffffffffff16906020019091905050610cc8565b604051808215151515815260200191505060405180910390f35b34156103ac57600080fd5b6103b4610e46565b604051808260028111156103c457fe5b60ff16815260200191505060405180910390f35b34156103e357600080fd5b6103eb610e59565b6040518080602001828103825283818151815260200191508051906020019080838360005b8381101561042b578082015181840152602081019050610410565b50505050905090810190601f1680156104585780820380516001836020036101000a031916815260200191505b509250505060405180910390f35b341561047157600080fd5b610479610ef7565b604051808273ffffffffffffffffffffffffffffffffffffffff1673ffffffffffffffffffffffffffffffffffffffff16815260200191505060405180910390f35b34156104c657600080fd5b610511600480803573ffffffffffffffffffffffffffffffffffffffff1690602001909190803573ffffffffffffffffffffffffffffffffffffffff16906020019091905050610f1d565b604051808215151515815260200191505060405180910390f35b341561053657600080fd5b61053e61119f565b604051808273ffffffffffffffffffffffffffffffffffffffff1673ffffffffffffffffffffffffffffffffffffffff16815260200191505060405180910390f35b341561058b57600080fd5b6105936111c4565b6040518080602001828103825283818151815260200191508051906020019080838360005b838110156105d35780820151818401526020810190506105b8565b50505050905090810190601f1680156106005780820380516001836020036101000a031916815260200191505b509250505060405180910390f35b341561061957600080fd5b610633600480803560001916906020019091905050611262565b005b341561064057600080fd5b61066c600480803573ffffffffffffffffffffffffffffffffffffffff169060200190919050506112b5565b604051808273ffffffffffffffffffffffffffffffffffffffff1673ffffffffffffffffffffffffffffffffffffffff16815260200191505060405180910390f35b34156106b957600080fd5b6106c161132e565b604051808b73ffffffffffffffffffffffffffffffffffffffff1673ffffffffffffffffffffffffffffffffffffffff1681526020018a73ffffffffffffffffffffffffffffffffffffffff1673ffffffffffffffffffffffffffffffffffffffff168152602001806020018060200180602001806020018060200189600281111561074957fe5b60ff1681526020018881526020018715151515815260200186810386528e818151815260200191508051906020019080838360005b8381101561079957808201518184015260208101905061077e565b50505050905090810190601f1680156107c65780820380516001836020036101000a031916815260200191505b5086810385528d818151815260200191508051906020019080838360005b838110156107ff5780820151818401526020810190506107e4565b50505050905090810190601f16801561082c5780820380516001836020036101000a031916815260200191505b5086810384528c818151815260200191508051906020019080838360005b8381101561086557808201518184015260208101905061084a565b50505050905090810190601f1680156108925780820380516001836020036101000a031916815260200191505b5086810383528b818151815260200191508051906020019080838360005b838110156108cb5780820151818401526020810190506108b0565b50505050905090810190601f1680156108f85780820380516001836020036101000a031916815260200191505b5086810382528a818151815260200191508051906020019080838360005b83811015610931578082015181840152602081019050610916565b50505050905090810190601f16801561095e5780820380516001836020036101000a031916815260200191505b509f5050505050505050505050505050505060405180910390f35b60038054600181600116156101000203166002900480601f016020809104026020016040519081016040528092919081815260200182805460018160011615610100020316600290048015610a0f5780601f106109e457610100808354040283529160200191610a0f565b820191906000526020600020905b8154815290600101906020018083116109f257829003601f168201915b505050505081565b600b5481565b60068054600181600116156101000203166002900480601f016020809104026020016040519081016040528092919081815260200182805460018160011615610100020316600290048015610ab35780601f10610a8857610100808354040283529160200191610ab3565b820191906000526020600020905b815481529060010190602001808311610a9657829003601f168201915b505050505081565b600860019054906101000a900460ff1681565b6000806000809054906101000a900473ffffffffffffffffffffffffffffffffffffffff168073ffffffffffffffffffffffffffffffffffffffff163373ffffffffffffffffffffffffffffffffffffffff16141515610b2d57600080fd5b306000809054906101000a900473ffffffffffffffffffffffffffffffffffffffff164345604051808573ffffffffffffffffffffffffffffffffffffffff1673ffffffffffffffffffffffffffffffffffffffff166c010000000000000000000000000281526014018473ffffffffffffffffffffffffffffffffffffffff1673ffffffffffffffffffffffffffffffffffffffff166c010000000000000000000000000281526014018381526020018281526020019450505050506040518091039020915081604051808260001916600019168152602001915050604051809103902060098160001916905550819250505090565b60028054600181600116156101000203166002900480601f016020809104026020016040519081016040528092919081815260200182805460018160011615610100020316600290048015610cba5780601f10610c8f57610100808354040283529160200191610cba565b820191906000526020600020905b815481529060010190602001808311610c9d57829003601f168201915b505050505081565b60075481565b600080600b54111515610cda57600080fd5b600a60008373ffffffffffffffffffffffffffffffffffffffff1673ffffffffffffffffffffffffffffffffffffffff16815260200190815260200160002060006101000a81549073ffffffffffffffffffffffffffffffffffffffff02191690556000600b600081546001900391905081905510158015610e3f5750600a60008373ffffffffffffffffffffffffffffffffffffffff1673ffffffffffffffffffffffffffffffffffffffff16815260200190815260200160002060009054906101000a900473ffffffffffffffffffffffffffffffffffffffff1673ffffffffffffffffffffffffffffffffffffffff1663392e53cd6000604051602001526040518163ffffffff167c0100000000000000000000000000000000000000000000000000000000028152600401602060405180830381600087803b1515610e2257600080fd5b6102c65a03f11515610e3357600080fd5b50505060405180519050155b9050919050565b600860009054906101000a900460ff1681565b60058054600181600116156101000203166002900480601f016020809104026020016040519081016040528092919081815260200182805460018160011615610100020316600290048015610eef5780601f10610ec457610100808354040283529160200191610eef565b820191906000526020600020905b815481529060010190602001808311610ed257829003601f168201915b505050505081565b600160009054906101000a900473ffffffffffffffffffffffffffffffffffffffff1681565b60008260001515600a60008373ffffffffffffffffffffffffffffffffffffffff1673ffffffffffffffffffffffffffffffffffffffff16815260200190815260200160002060009054906101000a900473ffffffffffffffffffffffffffffffffffffffff1673ffffffffffffffffffffffffffffffffffffffff1663392e53cd6000604051602001526040518163ffffffff167c0100000000000000000000000000000000000000000000000000000000028152600401602060405180830381600087803b1515610fef57600080fd5b6102c65a03f1151561100057600080fd5b50505060405180519050151514151561101857600080fd5b82600a60008673ffffffffffffffffffffffffffffffffffffffff1673ffffffffffffffffffffffffffffffffffffffff16815260200190815260200160002060006101000a81548173ffffffffffffffffffffffffffffffffffffffff021916908373ffffffffffffffffffffffffffffffffffffffff1602179055506000600b600081546001019190508190551180156111965750600a60008573ffffffffffffffffffffffffffffffffffffffff1673ffffffffffffffffffffffffffffffffffffffff16815260200190815260200160002060009054906101000a900473ffffffffffffffffffffffffffffffffffffffff1673ffffffffffffffffffffffffffffffffffffffff1663392e53cd6000604051602001526040518163ffffffff167c0100000000000000000000000000000000000000000000000000000000028152600401602060405180830381600087803b151561117a57600080fd5b6102c65a03f1151561118b57600080fd5b505050604051805190505b91505092915050565b6000809054906101000a900473ffffffffffffffffffffffffffffffffffffffff1681565b60048054600181600116156101000203166002900480601f01602080910402602001604051908101604052809291908181526020018280546001816001161561010002031660029004801561125a5780601f1061122f5761010080835404028352916020019161125a565b820191906000526020600020905b81548152906001019060200180831161123d57829003601f168201915b505050505081565b600954600019168160405180826000191660001916815260200191505060405180910390206000191614151561129757600080fd5b6001600860016101000a81548160ff02191690831515021790555050565b600080600b541115156112c757600080fd5b600a60008373ffffffffffffffffffffffffffffffffffffffff1673ffffffffffffffffffffffffffffffffffffffff16815260200190815260200160002060009054906101000a900473ffffffffffffffffffffffffffffffffffffffff169050919050565b6000806113396116fc565b6113416116fc565b6113496116fc565b6113516116fc565b6113596116fc565b60008060008060009054906101000a900473ffffffffffffffffffffffffffffffffffffffff16600160009054906101000a900473ffffffffffffffffffffffffffffffffffffffff1660026003600460056006600860009054906101000a900460ff16600754600860019054906101000a900460ff16878054600181600116156101000203166002900480601f0160208091040260200160405190810160405280929190818152602001828054600181600116156101000203166002900480156114655780601f1061143a57610100808354040283529160200191611465565b820191906000526020600020905b81548152906001019060200180831161144857829003601f168201915b50505050509750868054600181600116156101000203166002900480601f0160208091040260200160405190810160405280929190818152602001828054600181600116156101000203166002900480156115015780601f106114d657610100808354040283529160200191611501565b820191906000526020600020905b8154815290600101906020018083116114e457829003601f168201915b50505050509650858054600181600116156101000203166002900480601f01602080910402602001604051908101604052809291908181526020018280546001816001161561010002031660029004801561159d5780601f106115725761010080835404028352916020019161159d565b820191906000526020600020905b81548152906001019060200180831161158057829003601f168201915b50505050509550848054600181600116156101000203166002900480601f0160208091040260200160405190810160405280929190818152602001828054600181600116156101000203166002900480156116395780601f1061160e57610100808354040283529160200191611639565b820191906000526020600020905b81548152906001019060200180831161161c57829003601f168201915b50505050509450838054600181600116156101000203166002900480601f0160208091040260200160405190810160405280929190818152602001828054600181600116156101000203166002900480156116d55780601f106116aa576101008083540402835291602001916116d5565b820191906000526020600020905b8154815290600101906020018083116116b857829003601f168201915b50505050509350995099509950995099509950995099509950995090919293949596979899565b6020604051908101604052806000815250905600a165627a7a723058206e14eb1b1ee644b1faeb57f17a26df12b87e153a0e6aa75001a004aca87d899e0029",
  "source": "pragma solidity ^0.4.19;\n\nimport \"./IdentityModule.sol\";\n\n\ncontract Identity {\n    address public owner;\n    address public issuingAuthority;\n    string public legacyId;\n    string public name;\n    string public surname;\n    string public locality;\n    string public nationality;\n    uint public dateOfBirth;\n\n    enum Gender {MALE, FEMALE, X}\n    Gender public gender;\n\n    bool public isRevoked = false;\n\n    bytes32 private hashedRevocationCertificate;\n\n    mapping(address => IdentityModule) private modulesRegistered;\n    uint public modulesRegisteredSize = 0;\n\n    modifier onlyBy(address who) {\n        require(msg.sender == who);\n        _;\n    }\n\n    modifier hasModulesRegistered() {\n        require(modulesRegisteredSize > 0);\n        _;\n    }\n\n    modifier moduleNotRegistered(address factoryAddress) {\n        require(modulesRegistered[factoryAddress].isInitialized() == false);\n        _;\n    }\n\n    function Identity(address _owner, address _issuingAuthority, string _legacyId,\n    string _name, string _surname, string _locality, string _nationality, uint _dateOfBirth, Gender _gender) public {\n        owner = _owner;\n        issuingAuthority = _issuingAuthority;\n        legacyId = _legacyId;\n        name = _name;\n        surname = _surname;\n        locality = _locality;\n        nationality = _nationality;\n        dateOfBirth = _dateOfBirth;\n        gender = _gender;\n    }\n\n    function registerModule(address factoryAddress, IdentityModule module) external\n    moduleNotRegistered(factoryAddress) returns (bool) {\n        modulesRegistered[factoryAddress] = module;\n        return ++modulesRegisteredSize > 0 && modulesRegistered[factoryAddress].isInitialized();\n    }\n\n    function deregisterModule(address factoryAddress) external hasModulesRegistered() returns (bool) {\n        delete modulesRegistered[factoryAddress];\n        return --modulesRegisteredSize >= 0 && !modulesRegistered[factoryAddress].isInitialized();\n    }\n\n    function lookupModule(address factoryAddress) external hasModulesRegistered() view returns (IdentityModule) {\n        return modulesRegistered[factoryAddress];\n    }\n\n    function getDetails() external view returns\n        (address, address, string, string, string, string, string, Gender, uint, bool) {\n\n        return(owner, issuingAuthority, legacyId, name, surname, locality, nationality, gender, dateOfBirth, isRevoked);\n    }\n\n    function generateRevocationCertificate() public onlyBy(owner) returns (bytes32) {\n        bytes32 revocationCertificte = keccak256(this, owner, block.number, block.gaslimit);\n        hashedRevocationCertificate = keccak256(revocationCertificte);\n        return revocationCertificte;\n    }\n\n    function revoke(bytes32 cert) public {\n        require(keccak256(cert) == hashedRevocationCertificate);\n        isRevoked = true;\n    }\n}\n",
  "sourcePath": "/home/mark/git_synced/blockchain-hackathon/contracts/Identity.sol",
  "compiler": {
    "name": "solc",
    "version": "0.4.19+commit.c4cbbb05.Emscripten.clang"
  },
  "schemaVersion": "1.0.1",
  "updatedAt": "2018-02-25T15:14:42.382Z"
}