{
  "contractName": "QualificationsFactory",
  "abi": [
    {
      "constant": false,
      "inputs": [
        {
          "name": "newAuth",
          "type": "address"
        }
      ],
      "name": "removeAuthorizationFrom",
      "outputs": [],
      "payable": false,
      "stateMutability": "nonpayable",
      "type": "function"
    },
    {
      "constant": false,
      "inputs": [
        {
          "name": "newAuth",
          "type": "address"
        }
      ],
      "name": "giveAuthorizationTo",
      "outputs": [],
      "payable": false,
      "stateMutability": "nonpayable",
      "type": "function"
    },
    {
      "constant": true,
      "inputs": [],
      "name": "owner",
      "outputs": [
        {
          "name": "",
          "type": "address"
        }
      ],
      "payable": false,
      "stateMutability": "view",
      "type": "function"
    },
    {
      "constant": false,
      "inputs": [
        {
          "name": "newOwner",
          "type": "address"
        }
      ],
      "name": "changeOwner",
      "outputs": [],
      "payable": false,
      "stateMutability": "nonpayable",
      "type": "function"
    },
    {
      "constant": false,
      "inputs": [],
      "name": "createObject",
      "outputs": [
        {
          "name": "",
          "type": "address"
        }
      ],
      "payable": false,
      "stateMutability": "nonpayable",
      "type": "function"
    },
    {
      "constant": false,
      "inputs": [
        {
          "name": "_owner",
          "type": "address"
        },
        {
          "name": "_type",
          "type": "string"
        },
        {
          "name": "_subject",
          "type": "string"
        },
        {
          "name": "_dateAttained",
          "type": "uint256"
        },
        {
          "name": "_institute",
          "type": "string"
        },
        {
          "name": "_level",
          "type": "uint256"
        }
      ],
      "name": "_setQualificationToAdd",
      "outputs": [],
      "payable": false,
      "stateMutability": "nonpayable",
      "type": "function"
    }
  ],
  "bytecode": "0x606060405260018060003373ffffffffffffffffffffffffffffffffffffffff1673ffffffffffffffffffffffffffffffffffffffff16815260200190815260200160002060006101000a81548160ff021916908315150217905550336000806101000a81548173ffffffffffffffffffffffffffffffffffffffff021916908373ffffffffffffffffffffffffffffffffffffffff160217905550611b4f806100aa6000396000f300606060405260043610610078576000357c0100000000000000000000000000000000000000000000000000000000900463ffffffff1680630e12a4e11461007d57806329f0f4ea146100d25780636ce683671461010b5780638da5cb5b14610144578063a6f9dae114610199578063ac59ba8f146101d2575b600080fd5b341561008857600080fd5b6100906102e6565b604051808273ffffffffffffffffffffffffffffffffffffffff1673ffffffffffffffffffffffffffffffffffffffff16815260200191505060405180910390f35b34156100dd57600080fd5b610109600480803573ffffffffffffffffffffffffffffffffffffffff16906020019091905050610a52565b005b341561011657600080fd5b610142600480803573ffffffffffffffffffffffffffffffffffffffff16906020019091905050610b65565b005b341561014f57600080fd5b610157610c19565b604051808273ffffffffffffffffffffffffffffffffffffffff1673ffffffffffffffffffffffffffffffffffffffff16815260200191505060405180910390f35b34156101a457600080fd5b6101d0600480803573ffffffffffffffffffffffffffffffffffffffff16906020019091905050610c3e565b005b34156101dd57600080fd5b6102e4600480803573ffffffffffffffffffffffffffffffffffffffff1690602001909190803590602001908201803590602001908080601f0160208091040260200160405190810160405280939291908181526020018383808284378201915050505050509190803590602001908201803590602001908080601f0160208091040260200160405190810160405280939291908181526020018383808284378201915050505050509190803590602001909190803590602001908201803590602001908080601f01602080910402602001604051908101604052809392919081815260200183838082843782019150505050505091908035906020019091905050610d39565b005b60008033600160008273ffffffffffffffffffffffffffffffffffffffff1673ffffffffffffffffffffffffffffffffffffffff16815260200190815260200160002060009054906101000a900460ff16151561034257600080fd5b600260e060405190810160405290816000820160009054906101000a900460ff161515151581526020016000820160019054906101000a900473ffffffffffffffffffffffffffffffffffffffff1673ffffffffffffffffffffffffffffffffffffffff1673ffffffffffffffffffffffffffffffffffffffff168152602001600182018054600181600116156101000203166002900480601f01602080910402602001604051908101604052809291908181526020018280546001816001161561010002031660029004801561045a5780601f1061042f5761010080835404028352916020019161045a565b820191906000526020600020905b81548152906001019060200180831161043d57829003601f168201915b50505050508152602001600282018054600181600116156101000203166002900480601f0160208091040260200160405190810160405280929190818152602001828054600181600116156101000203166002900480156104fc5780601f106104d1576101008083540402835291602001916104fc565b820191906000526020600020905b8154815290600101906020018083116104df57829003601f168201915b5050505050815260200160038201548152602001600482018054600181600116156101000203166002900480601f0160208091040260200160405190810160405280929190818152602001828054600181600116156101000203166002900480156105a85780601f1061057d576101008083540402835291602001916105a8565b820191906000526020600020905b81548152906001019060200180831161058b57829003601f168201915b50505050508152602001600582015481525050806000015115156105cb57600080fd5b600260000160019054906101000a900473ffffffffffffffffffffffffffffffffffffffff1673ffffffffffffffffffffffffffffffffffffffff1663c7a6afc7306000604051602001526040518263ffffffff167c0100000000000000000000000000000000000000000000000000000000028152600401808273ffffffffffffffffffffffffffffffffffffffff1673ffffffffffffffffffffffffffffffffffffffff168152602001915050602060405180830381600087803b151561069357600080fd5b6102c65a03f115156106a457600080fd5b5050506040518051905092508273ffffffffffffffffffffffffffffffffffffffff1663ad68ea3d6000604051602001526040518163ffffffff167c0100000000000000000000000000000000000000000000000000000000028152600401602060405180830381600087803b151561071c57600080fd5b6102c65a03f1151561072d57600080fd5b5050506040518051905015156107ee5730600260000160019054906101000a900473ffffffffffffffffffffffffffffffffffffffff1661076c610ebf565b808373ffffffffffffffffffffffffffffffffffffffff1673ffffffffffffffffffffffffffffffffffffffff1681526020018273ffffffffffffffffffffffffffffffffffffffff1673ffffffffffffffffffffffffffffffffffffffff16815260200192505050604051809103906000f08015156107eb57600080fd5b92505b8273ffffffffffffffffffffffffffffffffffffffff16634f19cf0360026001016002800160026003015460026004016002600501546040518663ffffffff167c0100000000000000000000000000000000000000000000000000000000028152600401808060200180602001868152602001806020018581526020018481038452898181546001816001161561010002031660029004815260200191508054600181600116156101000203166002900480156108ec5780601f106108c1576101008083540402835291602001916108ec565b820191906000526020600020905b8154815290600101906020018083116108cf57829003601f168201915b505084810383528881815460018160011615610100020316600290048152602001915080546001816001161561010002031660029004801561096f5780601f106109445761010080835404028352916020019161096f565b820191906000526020600020905b81548152906001019060200180831161095257829003601f168201915b50508481038252868181546001816001161561010002031660029004815260200191508054600181600116156101000203166002900480156109f25780601f106109c7576101008083540402835291602001916109f2565b820191906000526020600020905b8154815290600101906020018083116109d557829003601f168201915b505098505050505050505050600060405180830381600087803b1515610a1757600080fd5b6102c65a03f11515610a2857600080fd5b5050506000600260000160006101000a81548160ff02191690831515021790555082935050505090565b33600160008273ffffffffffffffffffffffffffffffffffffffff1673ffffffffffffffffffffffffffffffffffffffff16815260200190815260200160002060009054906101000a900460ff161515610aab57600080fd5b816000809054906101000a900473ffffffffffffffffffffffffffffffffffffffff1673ffffffffffffffffffffffffffffffffffffffff168173ffffffffffffffffffffffffffffffffffffffff1614151515610b0857600080fd5b6000600160008573ffffffffffffffffffffffffffffffffffffffff1673ffffffffffffffffffffffffffffffffffffffff16815260200190815260200160002060006101000a81548160ff021916908315150217905550505050565b33600160008273ffffffffffffffffffffffffffffffffffffffff1673ffffffffffffffffffffffffffffffffffffffff16815260200190815260200160002060009054906101000a900460ff161515610bbe57600080fd5b60018060008473ffffffffffffffffffffffffffffffffffffffff1673ffffffffffffffffffffffffffffffffffffffff16815260200190815260200160002060006101000a81548160ff0219169083151502179055505050565b6000809054906101000a900473ffffffffffffffffffffffffffffffffffffffff1681565b80600160008273ffffffffffffffffffffffffffffffffffffffff1673ffffffffffffffffffffffffffffffffffffffff16815260200190815260200160002060009054906101000a900460ff161515610c9757600080fd5b816000809054906101000a900473ffffffffffffffffffffffffffffffffffffffff1673ffffffffffffffffffffffffffffffffffffffff168173ffffffffffffffffffffffffffffffffffffffff1614151515610cf457600080fd5b826000806101000a81548173ffffffffffffffffffffffffffffffffffffffff021916908373ffffffffffffffffffffffffffffffffffffffff160217905550505050565b33600160008273ffffffffffffffffffffffffffffffffffffffff1673ffffffffffffffffffffffffffffffffffffffff16815260200190815260200160002060009054906101000a900460ff161515610d9257600080fd5b60e0604051908101604052806001151581526020018873ffffffffffffffffffffffffffffffffffffffff16815260200187815260200186815260200185815260200184815260200183815250600260008201518160000160006101000a81548160ff02191690831515021790555060208201518160000160016101000a81548173ffffffffffffffffffffffffffffffffffffffff021916908373ffffffffffffffffffffffffffffffffffffffff1602179055506040820151816001019080519060200190610e64929190610ecf565b506060820151816002019080519060200190610e81929190610ecf565b506080820151816003015560a0820151816004019080519060200190610ea8929190610ecf565b5060c0820151816005015590505050505050505050565b604051610baf80610f7583390190565b828054600181600116156101000203166002900490600052602060002090601f016020900481019282601f10610f1057805160ff1916838001178555610f3e565b82800160010185558215610f3e579182015b82811115610f3d578251825591602001919060010190610f22565b5b509050610f4b9190610f4f565b5090565b610f7191905b80821115610f6d576000816000905550600101610f55565b5090565b905600606060405260008060146101000a81548160ff021916908315150217905550341561002957600080fd5b604051604080610baf8339810160405280805190602001909190805190602001909190505080806000806101000a81548173ffffffffffffffffffffffffffffffffffffffff021916908373ffffffffffffffffffffffffffffffffffffffff1602179055506001600060146101000a81548160ff0219169083151502179055506000809054906101000a900473ffffffffffffffffffffffffffffffffffffffff1673ffffffffffffffffffffffffffffffffffffffff16638a53ea776000809054906101000a900473ffffffffffffffffffffffffffffffffffffffff16306000604051602001526040518363ffffffff167c0100000000000000000000000000000000000000000000000000000000028152600401808373ffffffffffffffffffffffffffffffffffffffff1673ffffffffffffffffffffffffffffffffffffffff1681526020018273ffffffffffffffffffffffffffffffffffffffff1673ffffffffffffffffffffffffffffffffffffffff16815260200192505050602060405180830381600087803b15156101c357600080fd5b6102c65a03f115156101d457600080fd5b5050506040518051905015156101e957600080fd5b5081600160006101000a81548173ffffffffffffffffffffffffffffffffffffffff021916908373ffffffffffffffffffffffffffffffffffffffff16021790555050506109738061023c6000396000f30060606040526004361061006d576000357c0100000000000000000000000000000000000000000000000000000000900463ffffffff168063392e53cd146100725780634f19cf031461009f5780637561894d146101075780638da5cb5b14610289578063ad68ea3d146102de575b600080fd5b341561007d57600080fd5b61008561030b565b604051808215151515815260200191505060405180910390f35b34156100aa57600080fd5b610105600480803590602001908201803590602001919091929080359060200190820180359060200191909192908035906020019091908035906020019082018035906020019190919290803590602001909190505061031e565b005b341561011257600080fd5b61012860048080359060200190919050506104db565b60405180806020018060200186815260200180602001858152602001848103845289818151815260200191508051906020019080838360005b8381101561017c578082015181840152602081019050610161565b50505050905090810190601f1680156101a95780820380516001836020036101000a031916815260200191505b50848103835288818151815260200191508051906020019080838360005b838110156101e25780820151818401526020810190506101c7565b50505050905090810190601f16801561020f5780820380516001836020036101000a031916815260200191505b50848103825286818151815260200191508051906020019080838360005b8381101561024857808201518184015260208101905061022d565b50505050905090810190601f1680156102755780820380516001836020036101000a031916815260200191505b509850505050505050505060405180910390f35b341561029457600080fd5b61029c610780565b604051808273ffffffffffffffffffffffffffffffffffffffff1673ffffffffffffffffffffffffffffffffffffffff16815260200191505060405180910390f35b34156102e957600080fd5b6102f16107a5565b604051808215151515815260200191505060405180910390f35b600060149054906101000a900460ff1681565b33600160009054906101000a900473ffffffffffffffffffffffffffffffffffffffff1673ffffffffffffffffffffffffffffffffffffffff168173ffffffffffffffffffffffffffffffffffffffff1614151561037b57600080fd5b6002805480600101828161038f91906107b5565b9160005260206000209060050201600060a0604051908101604052808d8d8080601f01602080910402602001604051908101604052809392919081815260200183838082843782019150505050505081526020018b8b8080601f016020809104026020016040519081016040528093929190818152602001838380828437820191505050505050815260200189815260200188888080601f0160208091040260200160405190810160405280939291908181526020018383808284378201915050505050508152602001868152509091909150600082015181600001908051906020019061047e9291906107e7565b50602082015181600101908051906020019061049b9291906107e7565b506040820151816002015560608201518160030190805190602001906104c29291906107e7565b5060808201518160040155505050505050505050505050565b6104e3610867565b6104eb610867565b60006104f5610867565b600060028681548110151561050657fe5b906000526020600020906005020160000160028781548110151561052657fe5b906000526020600020906005020160010160028881548110151561054657fe5b90600052602060002090600502016002015460028981548110151561056757fe5b906000526020600020906005020160030160028a81548110151561058757fe5b906000526020600020906005020160040154848054600181600116156101000203166002900480601f01602080910402602001604051908101604052809291908181526020018280546001816001161561010002031660029004801561062e5780601f106106035761010080835404028352916020019161062e565b820191906000526020600020905b81548152906001019060200180831161061157829003601f168201915b50505050509450838054600181600116156101000203166002900480601f0160208091040260200160405190810160405280929190818152602001828054600181600116156101000203166002900480156106ca5780601f1061069f576101008083540402835291602001916106ca565b820191906000526020600020905b8154815290600101906020018083116106ad57829003601f168201915b50505050509350818054600181600116156101000203166002900480601f0160208091040260200160405190810160405280929190818152602001828054600181600116156101000203166002900480156107665780601f1061073b57610100808354040283529160200191610766565b820191906000526020600020905b81548152906001019060200180831161074957829003601f168201915b505050505091509450945094509450945091939590929450565b6000809054906101000a900473ffffffffffffffffffffffffffffffffffffffff1681565b6000806002805490501415905090565b8154818355818115116107e2576005028160050283600052602060002091820191016107e1919061087b565b5b505050565b828054600181600116156101000203166002900490600052602060002090601f016020900481019282601f1061082857805160ff1916838001178555610856565b82800160010185558215610856579182015b8281111561085557825182559160200191906001019061083a565b5b50905061086391906108da565b5090565b602060405190810160405280600081525090565b6108d791905b808211156108d3576000808201600061089a91906108ff565b6001820160006108aa91906108ff565b60028201600090556003820160006108c291906108ff565b600482016000905550600501610881565b5090565b90565b6108fc91905b808211156108f85760008160009055506001016108e0565b5090565b90565b50805460018160011615610100020316600290046000825580601f106109255750610944565b601f01602090049060005260206000209081019061094391906108da565b5b505600a165627a7a723058204df3bf6add0b41d48c70af0afa68af626ec8ade1d002456a73a66fe2124a92470029a165627a7a72305820c674b72723a7dcb18e2c68fca0eea241483ccd56c065104869edb9bc4377993f0029",
  "source": "pragma solidity ^0.4.19;\n\nimport \"./Factory.sol\";\nimport \"./Identity.sol\";\nimport \"./Qualifications.sol\";\n\n\ncontract QualificationsFactory is Factory {\n\n    struct Qual {\n        bool isInUse;\n        Identity owner;\n        string qualificationType;\n        string subject;\n        uint dateAttained;\n        string institute;\n        uint level;\n    }\n\n    Qual private toAdd;\n\n    modifier isNotEmpty(Qual toCheck) {\n        require(toCheck.isInUse);\n        _;\n    }\n\n    function createObject() external isAuthorized(msg.sender) isNotEmpty(toAdd) returns (address) {\n        Qualifications qualifications = Qualifications(toAdd.owner.lookupModule(this));\n        if (!qualifications.hasQualifications()) {\n            qualifications = new Qualifications(this, toAdd.owner);\n        }\n\n        qualifications._addQual(toAdd.qualificationType, toAdd.subject,\n        toAdd.dateAttained, toAdd.institute, toAdd.level);\n\n        toAdd.isInUse = false;\n\n        return qualifications;\n    }\n\n    function _setQualificationToAdd(Identity _owner, string _type, string _subject,\n    uint _dateAttained, string _institute, uint _level) public isAuthorized(msg.sender) {\n        toAdd = Qual(true, _owner, _type, _subject, _dateAttained, _institute, _level);\n    }\n}\n",
  "sourcePath": "/home/mark/git_synced/blockchain-hackathon/contracts/QualificationsFactory.sol",
  "compiler": {
    "name": "solc",
    "version": "0.4.19+commit.c4cbbb05.Emscripten.clang"
  },
  "schemaVersion": "1.0.1",
  "updatedAt": "2018-02-25T15:14:42.385Z"
}