{
  "contractName": "Qualifications",
  "abi": [
    {
      "constant": true,
      "inputs": [],
      "name": "isInitialized",
      "outputs": [
        {
          "name": "",
          "type": "bool"
        }
      ],
      "payable": false,
      "stateMutability": "view",
      "type": "function"
    },
    {
      "constant": true,
      "inputs": [],
      "name": "owner",
      "outputs": [
        {
          "name": "",
          "type": "address"
        }
      ],
      "payable": false,
      "stateMutability": "view",
      "type": "function"
    },
    {
      "inputs": [
        {
          "name": "issuer",
          "type": "address"
        },
        {
          "name": "_owner",
          "type": "address"
        }
      ],
      "payable": false,
      "stateMutability": "nonpayable",
      "type": "constructor"
    },
    {
      "constant": false,
      "inputs": [
        {
          "name": "_type",
          "type": "string"
        },
        {
          "name": "_subject",
          "type": "string"
        },
        {
          "name": "_dateAttained",
          "type": "uint256"
        },
        {
          "name": "_institute",
          "type": "string"
        },
        {
          "name": "_level",
          "type": "uint256"
        }
      ],
      "name": "_addQual",
      "outputs": [],
      "payable": false,
      "stateMutability": "nonpayable",
      "type": "function"
    },
    {
      "constant": true,
      "inputs": [
        {
          "name": "_qualIndex",
          "type": "uint256"
        }
      ],
      "name": "_getQualInfo",
      "outputs": [
        {
          "name": "",
          "type": "string"
        },
        {
          "name": "",
          "type": "string"
        },
        {
          "name": "",
          "type": "uint256"
        },
        {
          "name": "",
          "type": "string"
        },
        {
          "name": "",
          "type": "uint256"
        }
      ],
      "payable": false,
      "stateMutability": "view",
      "type": "function"
    },
    {
      "constant": true,
      "inputs": [],
      "name": "hasQualifications",
      "outputs": [
        {
          "name": "",
          "type": "bool"
        }
      ],
      "payable": false,
      "stateMutability": "view",
      "type": "function"
    }
  ],
  "bytecode": "0x606060405260008060146101000a81548160ff021916908315150217905550341561002957600080fd5b604051604080610baf8339810160405280805190602001909190805190602001909190505080806000806101000a81548173ffffffffffffffffffffffffffffffffffffffff021916908373ffffffffffffffffffffffffffffffffffffffff1602179055506001600060146101000a81548160ff0219169083151502179055506000809054906101000a900473ffffffffffffffffffffffffffffffffffffffff1673ffffffffffffffffffffffffffffffffffffffff16638a53ea776000809054906101000a900473ffffffffffffffffffffffffffffffffffffffff16306000604051602001526040518363ffffffff167c0100000000000000000000000000000000000000000000000000000000028152600401808373ffffffffffffffffffffffffffffffffffffffff1673ffffffffffffffffffffffffffffffffffffffff1681526020018273ffffffffffffffffffffffffffffffffffffffff1673ffffffffffffffffffffffffffffffffffffffff16815260200192505050602060405180830381600087803b15156101c357600080fd5b6102c65a03f115156101d457600080fd5b5050506040518051905015156101e957600080fd5b5081600160006101000a81548173ffffffffffffffffffffffffffffffffffffffff021916908373ffffffffffffffffffffffffffffffffffffffff16021790555050506109738061023c6000396000f30060606040526004361061006d576000357c0100000000000000000000000000000000000000000000000000000000900463ffffffff168063392e53cd146100725780634f19cf031461009f5780637561894d146101075780638da5cb5b14610289578063ad68ea3d146102de575b600080fd5b341561007d57600080fd5b61008561030b565b604051808215151515815260200191505060405180910390f35b34156100aa57600080fd5b610105600480803590602001908201803590602001919091929080359060200190820180359060200191909192908035906020019091908035906020019082018035906020019190919290803590602001909190505061031e565b005b341561011257600080fd5b61012860048080359060200190919050506104db565b60405180806020018060200186815260200180602001858152602001848103845289818151815260200191508051906020019080838360005b8381101561017c578082015181840152602081019050610161565b50505050905090810190601f1680156101a95780820380516001836020036101000a031916815260200191505b50848103835288818151815260200191508051906020019080838360005b838110156101e25780820151818401526020810190506101c7565b50505050905090810190601f16801561020f5780820380516001836020036101000a031916815260200191505b50848103825286818151815260200191508051906020019080838360005b8381101561024857808201518184015260208101905061022d565b50505050905090810190601f1680156102755780820380516001836020036101000a031916815260200191505b509850505050505050505060405180910390f35b341561029457600080fd5b61029c610780565b604051808273ffffffffffffffffffffffffffffffffffffffff1673ffffffffffffffffffffffffffffffffffffffff16815260200191505060405180910390f35b34156102e957600080fd5b6102f16107a5565b604051808215151515815260200191505060405180910390f35b600060149054906101000a900460ff1681565b33600160009054906101000a900473ffffffffffffffffffffffffffffffffffffffff1673ffffffffffffffffffffffffffffffffffffffff168173ffffffffffffffffffffffffffffffffffffffff1614151561037b57600080fd5b6002805480600101828161038f91906107b5565b9160005260206000209060050201600060a0604051908101604052808d8d8080601f01602080910402602001604051908101604052809392919081815260200183838082843782019150505050505081526020018b8b8080601f016020809104026020016040519081016040528093929190818152602001838380828437820191505050505050815260200189815260200188888080601f0160208091040260200160405190810160405280939291908181526020018383808284378201915050505050508152602001868152509091909150600082015181600001908051906020019061047e9291906107e7565b50602082015181600101908051906020019061049b9291906107e7565b506040820151816002015560608201518160030190805190602001906104c29291906107e7565b5060808201518160040155505050505050505050505050565b6104e3610867565b6104eb610867565b60006104f5610867565b600060028681548110151561050657fe5b906000526020600020906005020160000160028781548110151561052657fe5b906000526020600020906005020160010160028881548110151561054657fe5b90600052602060002090600502016002015460028981548110151561056757fe5b906000526020600020906005020160030160028a81548110151561058757fe5b906000526020600020906005020160040154848054600181600116156101000203166002900480601f01602080910402602001604051908101604052809291908181526020018280546001816001161561010002031660029004801561062e5780601f106106035761010080835404028352916020019161062e565b820191906000526020600020905b81548152906001019060200180831161061157829003601f168201915b50505050509450838054600181600116156101000203166002900480601f0160208091040260200160405190810160405280929190818152602001828054600181600116156101000203166002900480156106ca5780601f1061069f576101008083540402835291602001916106ca565b820191906000526020600020905b8154815290600101906020018083116106ad57829003601f168201915b50505050509350818054600181600116156101000203166002900480601f0160208091040260200160405190810160405280929190818152602001828054600181600116156101000203166002900480156107665780601f1061073b57610100808354040283529160200191610766565b820191906000526020600020905b81548152906001019060200180831161074957829003601f168201915b505050505091509450945094509450945091939590929450565b6000809054906101000a900473ffffffffffffffffffffffffffffffffffffffff1681565b6000806002805490501415905090565b8154818355818115116107e2576005028160050283600052602060002091820191016107e1919061087b565b5b505050565b828054600181600116156101000203166002900490600052602060002090601f016020900481019282601f1061082857805160ff1916838001178555610856565b82800160010185558215610856579182015b8281111561085557825182559160200191906001019061083a565b5b50905061086391906108da565b5090565b602060405190810160405280600081525090565b6108d791905b808211156108d3576000808201600061089a91906108ff565b6001820160006108aa91906108ff565b60028201600090556003820160006108c291906108ff565b600482016000905550600501610881565b5090565b90565b6108fc91905b808211156108f85760008160009055506001016108e0565b5090565b90565b50805460018160011615610100020316600290046000825580601f106109255750610944565b601f01602090049060005260206000209081019061094391906108da565b5b505600a165627a7a723058204df3bf6add0b41d48c70af0afa68af626ec8ade1d002456a73a66fe2124a92470029",
  "source": "pragma solidity ^0.4.19;\r\n\r\nimport \"./IdentityModule.sol\";\r\n\r\n\r\ncontract Qualifications is IdentityModule {\r\n    struct OwnerQualification {\r\n        //Attributes related to qualification\r\n        string qType; //E.g. O Level, A Level, Certificate, Bachelors, Masters...\r\n        string qSubject; //E.g. in what? Maths, Computing Science etc...\r\n        uint qDateAttained; //E.g. Epoch timestamp\r\n        string qInstitute; //Issuer of qualification\r\n        uint qLevel; //National Qualifications Framework Level\r\n    }\r\n\r\n    address private issuerAddress;\r\n\r\n    OwnerQualification[] private ownerQualifications;\r\n\r\n    modifier isIssuer(address toCheck) {\r\n        require(toCheck == issuerAddress);\r\n        _;\r\n    }\r\n\r\n    function Qualifications(address issuer, Identity _owner) public IdentityModule(_owner) {\r\n        issuerAddress = issuer;\r\n    }\r\n\r\n    function _addQual(string _type, string _subject, uint _dateAttained,\r\n    string _institute, uint _level) external isIssuer(msg.sender) {\r\n        ownerQualifications.push(\r\n            OwnerQualification(_type, _subject, _dateAttained, _institute, _level));\r\n    }\r\n\r\n    function _getQualInfo(uint _qualIndex) external view returns(string, string, uint, string, uint) {\r\n        return (ownerQualifications[_qualIndex].qType, ownerQualifications[_qualIndex].qSubject,\r\n        ownerQualifications[_qualIndex].qDateAttained, ownerQualifications[_qualIndex].qInstitute,\r\n        ownerQualifications[_qualIndex].qLevel);\r\n    }\r\n\r\n    function hasQualifications() external view returns (bool) {\r\n        return ownerQualifications.length != 0;\r\n    }\r\n\r\n    function getModuleName() internal view returns (string) {\r\n        return \"Qualifications\";\r\n    }\r\n\r\n}\r\n",
  "sourcePath": "/home/mark/git_synced/blockchain-hackathon/contracts/Qualifications.sol",
  "compiler": {
    "name": "solc",
    "version": "0.4.19+commit.c4cbbb05.Emscripten.clang"
  },
  "schemaVersion": "1.0.1",
  "updatedAt": "2018-02-25T16:15:53.291Z"
}